{
  "contractName": "TokenSwap",
  "abi": [
    {
      "constant": true,
      "inputs": [],
      "name": "name",
      "outputs": [
        {
          "name": "",
          "type": "string"
        }
      ],
      "payable": false,
      "stateMutability": "view",
      "type": "function",
      "signature": "0x06fdde03"
    },
    {
      "constant": true,
      "inputs": [],
      "name": "token",
      "outputs": [
        {
          "name": "",
          "type": "address"
        }
      ],
      "payable": false,
      "stateMutability": "view",
      "type": "function",
      "signature": "0xfc0c546a"
    },
    {
      "inputs": [
        {
          "name": "_token",
          "type": "address"
        }
      ],
      "payable": false,
      "stateMutability": "nonpayable",
      "type": "constructor",
      "signature": "constructor"
    },
    {
      "constant": false,
      "inputs": [],
      "name": "purchaseTokens",
      "outputs": [],
      "payable": true,
      "stateMutability": "payable",
      "type": "function",
      "signature": "0x3290ce29"
    },
    {
      "constant": false,
      "inputs": [
        {
          "name": "tokensSold",
          "type": "uint256"
        }
      ],
      "name": "sellTokens",
      "outputs": [],
      "payable": true,
      "stateMutability": "payable",
      "type": "function",
      "signature": "0x6c11bcd3"
    }
  ],
  "bytecode": "0x60806040526040805190810160405280600b81526020017f546f6b656e2053776170210000000000000000000000000000000000000000008152506000908051906020019061004f9291906100d4565b5034801561005c57600080fd5b506040516020806108f28339810180604052602081101561007c57600080fd5b810190808051906020019092919050505080600160006101000a81548173ffffffffffffffffffffffffffffffffffffffff021916908373ffffffffffffffffffffffffffffffffffffffff16021790555050610179565b828054600181600116156101000203166002900490600052602060002090601f016020900481019282601f1061011557805160ff1916838001178555610143565b82800160010185558215610143579182015b82811115610142578251825591602001919060010190610127565b5b5090506101509190610154565b5090565b61017691905b8082111561017257600081600090555060010161015a565b5090565b90565b61076a806101886000396000f3fe608060405260043610610062576000357c0100000000000000000000000000000000000000000000000000000000900463ffffffff16806306fdde03146100675780633290ce29146100f75780636c11bcd314610101578063fc0c546a1461012f575b600080fd5b34801561007357600080fd5b5061007c610186565b6040518080602001828103825283818151815260200191508051906020019080838360005b838110156100bc5780820151818401526020810190506100a1565b50505050905090810190601f1680156100e95780820380516001836020036101000a031916815260200191505b509250505060405180910390f35b6100ff610224565b005b61012d6004803603602081101561011757600080fd5b8101908080359060200190929190505050610457565b005b34801561013b57600080fd5b50610144610718565b604051808273ffffffffffffffffffffffffffffffffffffffff1673ffffffffffffffffffffffffffffffffffffffff16815260200191505060405180910390f35b60008054600181600116156101000203166002900480601f01602080910402602001604051908101604052809291908181526020018280546001816001161561010002031660029004801561021c5780601f106101f15761010080835404028352916020019161021c565b820191906000526020600020905b8154815290600101906020018083116101ff57829003601f168201915b505050505081565b343373ffffffffffffffffffffffffffffffffffffffff16311015151561024a57600080fd5b600a3402600160009054906101000a900473ffffffffffffffffffffffffffffffffffffffff1673ffffffffffffffffffffffffffffffffffffffff166370a08231306040518263ffffffff167c0100000000000000000000000000000000000000000000000000000000028152600401808273ffffffffffffffffffffffffffffffffffffffff1673ffffffffffffffffffffffffffffffffffffffff16815260200191505060206040518083038186803b15801561030957600080fd5b505afa15801561031d573d6000803e3d6000fd5b505050506040513d602081101561033357600080fd5b81019080805190602001909291905050501015151561035157600080fd5b600160009054906101000a900473ffffffffffffffffffffffffffffffffffffffff1673ffffffffffffffffffffffffffffffffffffffff1663a9059cbb33600a34026040518363ffffffff167c0100000000000000000000000000000000000000000000000000000000028152600401808373ffffffffffffffffffffffffffffffffffffffff1673ffffffffffffffffffffffffffffffffffffffff16815260200182815260200192505050602060405180830381600087803b15801561041957600080fd5b505af115801561042d573d6000803e3d6000fd5b505050506040513d602081101561044357600080fd5b810190808051906020019092919050505050565b80600160009054906101000a900473ffffffffffffffffffffffffffffffffffffffff1673ffffffffffffffffffffffffffffffffffffffff166370a08231336040518263ffffffff167c0100000000000000000000000000000000000000000000000000000000028152600401808273ffffffffffffffffffffffffffffffffffffffff1673ffffffffffffffffffffffffffffffffffffffff16815260200191505060206040518083038186803b15801561051357600080fd5b505afa158015610527573d6000803e3d6000fd5b505050506040513d602081101561053d57600080fd5b81019080805190602001909291905050501015151561055b57600080fd5b600a8181151561056757fe5b043073ffffffffffffffffffffffffffffffffffffffff16311015151561058d57600080fd5b600160009054906101000a900473ffffffffffffffffffffffffffffffffffffffff1673ffffffffffffffffffffffffffffffffffffffff166323b872dd3330846040518463ffffffff167c0100000000000000000000000000000000000000000000000000000000028152600401808473ffffffffffffffffffffffffffffffffffffffff1673ffffffffffffffffffffffffffffffffffffffff1681526020018373ffffffffffffffffffffffffffffffffffffffff1673ffffffffffffffffffffffffffffffffffffffff1681526020018281526020019350505050602060405180830381600087803b15801561068657600080fd5b505af115801561069a573d6000803e3d6000fd5b505050506040513d60208110156106b057600080fd5b8101908080519060200190929190505050503373ffffffffffffffffffffffffffffffffffffffff166108fc600a838115156106e857fe5b049081150290604051600060405180830381858888f19350505050158015610714573d6000803e3d6000fd5b5050565b600160009054906101000a900473ffffffffffffffffffffffffffffffffffffffff168156fea165627a7a7230582020de0aa6e3ea6d49d9368d2679c94ef9c65f1ee0c5f642f791447bb22246fbd90029",
  "source": "pragma solidity ^0.5.0;\r\n\r\nimport \"./Token.sol\";\r\n\r\ncontract TokenSwap {\r\n    string public name = \"Token Swap!\";\r\n    Token public token;\r\n    \r\n    constructor(Token _token) public {\r\n        token = _token;\r\n    }\r\n\r\n    // payable function type ensures that ether can be sent (payments can be made)\r\n    function purchaseTokens() public payable {\r\n        // requires that the contract caller has more ether than what they intend to swap\r\n        require(msg.sender.balance >= msg.value);\r\n\r\n        // requires that the 'TokenSwap' contract has more O9K than requested\r\n        require(token.balanceOf(address(this)) >= (msg.value * 10));\r\n\r\n        token.transfer(msg.sender, (msg.value * 10));   // 1 ether = 0.1 O9K\r\n    }\r\n\r\n    function sellTokens(uint tokensSold) public payable {\r\n        // require that the O9K balance of the contract caller is larger than the sale amount\r\n        require(token.balanceOf(msg.sender) >= tokensSold);\r\n\r\n        // require that the Ether balance of the 'TokenSwap' contract is greater than requested amount\r\n        require(address(this).balance >= (tokensSold / 10));\r\n\r\n        // tokens need to be transferred to this smart contract\r\n        token.transferFrom(msg.sender, address(this), tokensSold);\r\n\r\n        // sending ether to the contract caller\r\n        msg.sender.transfer(tokensSold / 10);\r\n    }\r\n}",
  "sourcePath": "C:/Users/Brandon/OneDrive/Documents/Coding/TokenSwap/src/contracts/TokenSwap.sol",
  "compiler": {
    "name": "solc",
    "version": "0.5.0+commit.1d4f565a.Emscripten.clang"
  },
  "schemaVersion": "3.0.1",
  "updatedAt": "2021-08-22T14:08:13.167Z",
  "devdoc": {
    "methods": {}
  },
  "userdoc": {
    "methods": {}
  }
}